:020000020000FC
:1000000004E00EBF0FE50DBF0FEF0ABB07BB0027D3
:1000100004BB000011270027442755270E947F00BA
:100020000E9445000E9457000E942D000E94390046
:10003000F5CFD3E00E941F00DA95E1F70895F8E0CC
:10004000EAEFEA950000E9F7FA95D1F708952AE07A
:100050000E941F002A95E1F70895989909C00E940F
:1000600027009899FACF0E946900989BFCCFD6CFC1
:100070000895999909C00E9427009999FACF0E9482
:100080008700999BFCCFCACF08959A990FC00E9410
:1000900027009A99FACF9A9BFECF11270027442771
:1000A0005527BB27B8BB0E947700BECF08959B9908
:1000B0000FC00E9427009B99FACF9B9BFECF1FEF9A
:1000C00005E045E052E0BFEFB8BB0E947700ACCF3F
:1000D00008951F3F09F005C0112700274427552721
:1000E00006C01395A12FA095A8BB0E94B10079E18D
:1000F0000E949E007A95703009F0FACF089579E158
:100100000E949E007A95703009F0FACF08950E94FF
:10011000C500103009F006C01FEF05E045E052E0D1
:1001200005C00BC01A95A12FA095A8BB79E10E942C
:100130009E007A95703009F0FACF08956627602FF7
:10014000606E6BBB0E9419006627642F606D6BBBED
:100150000E9419006627652F606B6BBB0E94190017
:10016000089503950A3009F00FC0002743954A30DF
:1001700009F00AC0539544271F3F09F005C0002726
:1001800044275527112700C00895103009F004C0F6
:1001900005E045E052E013C00A950F3F09F00FC09B
:1001A00009E04A954F3F09F00AC05A9549E01F3FC0
:1001B00009F005C0002744275527112700C00895DE
:00000001FF
